{
  "contractName": "ConflictZoneAid",
  "abi": [
    {
      "inputs": [],
      "stateMutability": "nonpayable",
      "type": "constructor"
    },
    {
      "anonymous": false,
      "inputs": [
        {
          "indexed": true,
          "internalType": "uint256",
          "name": "missionId",
          "type": "uint256"
        },
        {
          "indexed": false,
          "internalType": "enum ConflictZoneAid.Status",
          "name": "status",
          "type": "uint8"
        }
      ],
      "name": "MissionUpdated",
      "type": "event"
    },
    {
      "anonymous": false,
      "inputs": [
        {
          "indexed": true,
          "internalType": "uint256",
          "name": "missionId",
          "type": "uint256"
        },
        {
          "indexed": false,
          "internalType": "address",
          "name": "agency",
          "type": "address"
        },
        {
          "indexed": false,
          "internalType": "uint256",
          "name": "amount",
          "type": "uint256"
        }
      ],
      "name": "NewBid",
      "type": "event"
    },
    {
      "inputs": [
        {
          "internalType": "uint256",
          "name": "",
          "type": "uint256"
        },
        {
          "internalType": "uint256",
          "name": "",
          "type": "uint256"
        }
      ],
      "name": "missionBids",
      "outputs": [
        {
          "internalType": "address",
          "name": "agency",
          "type": "address"
        },
        {
          "internalType": "uint256",
          "name": "amount",
          "type": "uint256"
        }
      ],
      "stateMutability": "view",
      "type": "function",
      "constant": true
    },
    {
      "inputs": [],
      "name": "mission_count",
      "outputs": [
        {
          "internalType": "uint256",
          "name": "",
          "type": "uint256"
        }
      ],
      "stateMutability": "view",
      "type": "function",
      "constant": true
    },
    {
      "inputs": [
        {
          "internalType": "uint256",
          "name": "",
          "type": "uint256"
        }
      ],
      "name": "missions",
      "outputs": [
        {
          "internalType": "uint256",
          "name": "mission_id",
          "type": "uint256"
        },
        {
          "internalType": "string",
          "name": "category",
          "type": "string"
        },
        {
          "internalType": "uint256",
          "name": "max_budget",
          "type": "uint256"
        },
        {
          "internalType": "string",
          "name": "region",
          "type": "string"
        },
        {
          "internalType": "enum ConflictZoneAid.Status",
          "name": "current_status",
          "type": "uint8"
        },
        {
          "internalType": "address",
          "name": "donor_wallet",
          "type": "address"
        },
        {
          "internalType": "address",
          "name": "assigned_provider",
          "type": "address"
        },
        {
          "internalType": "uint256",
          "name": "agreed_cost",
          "type": "uint256"
        },
        {
          "internalType": "bool",
          "name": "agency_marked_complete",
          "type": "bool"
        }
      ],
      "stateMutability": "view",
      "type": "function",
      "constant": true
    },
    {
      "inputs": [],
      "name": "totalFeesCollected",
      "outputs": [
        {
          "internalType": "uint256",
          "name": "",
          "type": "uint256"
        }
      ],
      "stateMutability": "view",
      "type": "function",
      "constant": true
    },
    {
      "inputs": [],
      "name": "un_arbiter_admin",
      "outputs": [
        {
          "internalType": "address",
          "name": "",
          "type": "address"
        }
      ],
      "stateMutability": "view",
      "type": "function",
      "constant": true
    },
    {
      "inputs": [
        {
          "internalType": "address",
          "name": "",
          "type": "address"
        }
      ],
      "name": "users",
      "outputs": [
        {
          "internalType": "string",
          "name": "name",
          "type": "string"
        },
        {
          "internalType": "enum ConflictZoneAid.Role",
          "name": "role",
          "type": "uint8"
        },
        {
          "internalType": "uint256",
          "name": "reputationScore",
          "type": "uint256"
        },
        {
          "internalType": "bool",
          "name": "isRegistered",
          "type": "bool"
        }
      ],
      "stateMutability": "view",
      "type": "function",
      "constant": true
    },
    {
      "inputs": [
        {
          "internalType": "string",
          "name": "_name",
          "type": "string"
        },
        {
          "internalType": "enum ConflictZoneAid.Role",
          "name": "_role",
          "type": "uint8"
        }
      ],
      "name": "registerAccount",
      "outputs": [],
      "stateMutability": "nonpayable",
      "type": "function"
    },
    {
      "inputs": [],
      "name": "getAllMissions",
      "outputs": [
        {
          "components": [
            {
              "internalType": "uint256",
              "name": "mission_id",
              "type": "uint256"
            },
            {
              "internalType": "string",
              "name": "category",
              "type": "string"
            },
            {
              "internalType": "uint256",
              "name": "max_budget",
              "type": "uint256"
            },
            {
              "internalType": "string",
              "name": "region",
              "type": "string"
            },
            {
              "internalType": "enum ConflictZoneAid.Status",
              "name": "current_status",
              "type": "uint8"
            },
            {
              "internalType": "address",
              "name": "donor_wallet",
              "type": "address"
            },
            {
              "internalType": "address",
              "name": "assigned_provider",
              "type": "address"
            },
            {
              "internalType": "uint256",
              "name": "agreed_cost",
              "type": "uint256"
            },
            {
              "internalType": "bool",
              "name": "agency_marked_complete",
              "type": "bool"
            }
          ],
          "internalType": "struct ConflictZoneAid.Mission[]",
          "name": "",
          "type": "tuple[]"
        }
      ],
      "stateMutability": "view",
      "type": "function",
      "constant": true
    },
    {
      "inputs": [
        {
          "internalType": "string",
          "name": "_cat",
          "type": "string"
        },
        {
          "internalType": "uint256",
          "name": "_budgetInWei",
          "type": "uint256"
        },
        {
          "internalType": "string",
          "name": "_region",
          "type": "string"
        }
      ],
      "name": "postMission",
      "outputs": [],
      "stateMutability": "nonpayable",
      "type": "function"
    },
    {
      "inputs": [
        {
          "internalType": "uint256",
          "name": "_mId",
          "type": "uint256"
        },
        {
          "internalType": "uint256",
          "name": "_bidAmount",
          "type": "uint256"
        }
      ],
      "name": "submitBid",
      "outputs": [],
      "stateMutability": "nonpayable",
      "type": "function"
    },
    {
      "inputs": [
        {
          "internalType": "uint256",
          "name": "_mId",
          "type": "uint256"
        }
      ],
      "name": "getMissionBids",
      "outputs": [
        {
          "components": [
            {
              "internalType": "address",
              "name": "agency",
              "type": "address"
            },
            {
              "internalType": "uint256",
              "name": "amount",
              "type": "uint256"
            }
          ],
          "internalType": "struct ConflictZoneAid.Bid[]",
          "name": "",
          "type": "tuple[]"
        }
      ],
      "stateMutability": "view",
      "type": "function",
      "constant": true
    },
    {
      "inputs": [
        {
          "internalType": "uint256",
          "name": "_mId",
          "type": "uint256"
        },
        {
          "internalType": "uint256",
          "name": "_bidIndex",
          "type": "uint256"
        }
      ],
      "name": "fundMission",
      "outputs": [],
      "stateMutability": "payable",
      "type": "function",
      "payable": true
    },
    {
      "inputs": [
        {
          "internalType": "uint256",
          "name": "_mId",
          "type": "uint256"
        }
      ],
      "name": "markMissionDelivered",
      "outputs": [],
      "stateMutability": "nonpayable",
      "type": "function"
    },
    {
      "inputs": [
        {
          "internalType": "uint256",
          "name": "_mId",
          "type": "uint256"
        }
      ],
      "name": "approveAndPay",
      "outputs": [],
      "stateMutability": "nonpayable",
      "type": "function"
    },
    {
      "inputs": [
        {
          "internalType": "uint256",
          "name": "_mId",
          "type": "uint256"
        }
      ],
      "name": "initiateDispute",
      "outputs": [],
      "stateMutability": "nonpayable",
      "type": "function"
    },
    {
      "inputs": [
        {
          "internalType": "uint256",
          "name": "_mId",
          "type": "uint256"
        },
        {
          "internalType": "bool",
          "name": "_agencyAtFault",
          "type": "bool"
        }
      ],
      "name": "resolveDispute",
      "outputs": [],
      "stateMutability": "nonpayable",
      "type": "function"
    }
  ],
  "bytecode": "0x60806040523480156200001157600080fd5b50336000806101000a81548173ffffffffffffffffffffffffffffffffffffffff021916908373ffffffffffffffffffffffffffffffffffffffff16021790555060405180608001604052806040518060400160405280600881526020017f554e2041646d696e0000000000000000000000000000000000000000000000008152508152602001600380811115620000ae57620000ad6200017f565b5b81526020016103e8815260200160011515815250600360003373ffffffffffffffffffffffffffffffffffffffff1673ffffffffffffffffffffffffffffffffffffffff168152602001908152602001600020600082015181600001908162000118919062000428565b5060208201518160010160006101000a81548160ff021916908360038111156200014757620001466200017f565b5b02179055506040820151816002015560608201518160030160006101000a81548160ff0219169083151502179055509050506200050f565b7f4e487b7100000000000000000000000000000000000000000000000000000000600052602160045260246000fd5b600081519050919050565b7f4e487b7100000000000000000000000000000000000000000000000000000000600052604160045260246000fd5b7f4e487b7100000000000000000000000000000000000000000000000000000000600052602260045260246000fd5b600060028204905060018216806200023057607f821691505b602082108103620002465762000245620001e8565b5b50919050565b60008190508160005260206000209050919050565b60006020601f8301049050919050565b600082821b905092915050565b600060088302620002b07fffffffffffffffffffffffffffffffffffffffffffffffffffffffffffffffff8262000271565b620002bc868362000271565b95508019841693508086168417925050509392505050565b6000819050919050565b6000819050919050565b60006200030962000303620002fd84620002d4565b620002de565b620002d4565b9050919050565b6000819050919050565b6200032583620002e8565b6200033d620003348262000310565b8484546200027e565b825550505050565b600090565b6200035462000345565b620003618184846200031a565b505050565b5b8181101562000389576200037d6000826200034a565b60018101905062000367565b5050565b601f821115620003d857620003a2816200024c565b620003ad8462000261565b81016020851015620003bd578190505b620003d5620003cc8562000261565b83018262000366565b50505b505050565b600082821c905092915050565b6000620003fd60001984600802620003dd565b1980831691505092915050565b6000620004188383620003ea565b9150826002028217905092915050565b6200043382620001ae565b67ffffffffffffffff8111156200044f576200044e620001b9565b5b6200045b825462000217565b620004688282856200038d565b600060209050601f831160018114620004a057600084156200048b578287015190505b6200049785826200040a565b86555062000507565b601f198416620004b0866200024c565b60005b82811015620004da57848901518255600182019150602085019450602081019050620004b3565b86831015620004fa5784890151620004f6601f891682620003ea565b8355505b6001600288020188555050505b505050505050565b613a05806200051f6000396000f3fe6080604052600436106100f35760003560e01c80637dfd62371161008a578063b821da1b11610059578063b821da1b14610327578063e73112df14610350578063fa2b9fcb1461038d578063fdf6f5c8146103b6576100f3565b80637dfd6237146102755780638f14fd0e146102915780639ddbfaac146102bc578063a87430ba146102e7576100f3565b806360c6d8ae116100c657806360c6d8ae146101b85780636d8a1390146101e357806371635c031461020e5780637b9cb3d814610237576100f3565b806307897007146100f85780632c8fe5261461012157806334b25ee21461016657806340fec10d1461018f575b600080fd5b34801561010457600080fd5b5061011f600480360381019061011a919061219d565b6103df565b005b34801561012d57600080fd5b506101486004803603810190610143919061219d565b610642565b60405161015d9998979695949392919061233c565b60405180910390f35b34801561017257600080fd5b5061018d60048036038101906101889190612403565b6107fa565b005b34801561019b57600080fd5b506101b660048036038101906101b1919061219d565b610bca565b005b3480156101c457600080fd5b506101cd610ca0565b6040516101da9190612443565b60405180910390f35b3480156101ef57600080fd5b506101f8610ca6565b6040516102059190612672565b60405180910390f35b34801561021a57600080fd5b506102356004803603810190610230919061219d565b610fba565b005b34801561024357600080fd5b5061025e60048036038101906102599190612694565b6110d9565b60405161026c9291906126d4565b60405180910390f35b61028f600480360381019061028a9190612694565b61113a565b005b34801561029d57600080fd5b506102a66114d0565b6040516102b391906126fd565b60405180910390f35b3480156102c857600080fd5b506102d16114f4565b6040516102de9190612443565b60405180910390f35b3480156102f357600080fd5b5061030e60048036038101906103099190612744565b6114fa565b60405161031e94939291906127b9565b60405180910390f35b34801561033357600080fd5b5061034e60048036038101906103499190612694565b6115cc565b005b34801561035c57600080fd5b506103776004803603810190610372919061219d565b6118e3565b60405161038491906128e3565b60405180910390f35b34801561039957600080fd5b506103b460048036038101906103af9190612a3a565b611ab5565b005b3480156103c257600080fd5b506103dd60048036038101906103d89190612aea565b611c85565b005b60006004600083815260200190815260200160002090508060040160019054906101000a900473ffffffffffffffffffffffffffffffffffffffff1673ffffffffffffffffffffffffffffffffffffffff163373ffffffffffffffffffffffffffffffffffffffff1614610488576040517f08c379a000000000000000000000000000000000000000000000000000000000815260040161047f90612b92565b60405180910390fd5b8060070160009054906101000a900460ff166104d9576040517f08c379a00000000000000000000000000000000000000000000000000000000081526004016104d090612bfe565b60405180910390fd5b600160048111156104ed576104ec612269565b5b8160040160009054906101000a900460ff16600481111561051157610510612269565b5b14610551576040517f08c379a000000000000000000000000000000000000000000000000000000000815260040161054890612c6a565b60405180910390fd5b60028160040160006101000a81548160ff0219169083600481111561057957610578612269565b5b0217905550600f600360008360050160009054906101000a900473ffffffffffffffffffffffffffffffffffffffff1673ffffffffffffffffffffffffffffffffffffffff1673ffffffffffffffffffffffffffffffffffffffff16815260200190815260200160002060020160008282546105f59190612cb9565b9250508190555061060581611e9c565b817f064aa28429ea2a2bff0bb19a78fbb12ec09b425cb1e9e5d8748f5cf0bbbd024460026040516106369190612ced565b60405180910390a25050565b600460205280600052604060002060009150905080600001549080600101805461066b90612d37565b80601f016020809104026020016040519081016040528092919081815260200182805461069790612d37565b80156106e45780601f106106b9576101008083540402835291602001916106e4565b820191906000526020600020905b8154815290600101906020018083116106c757829003601f168201915b5050505050908060020154908060030180546106ff90612d37565b80601f016020809104026020016040519081016040528092919081815260200182805461072b90612d37565b80156107785780601f1061074d57610100808354040283529160200191610778565b820191906000526020600020905b81548152906001019060200180831161075b57829003601f168201915b5050505050908060040160009054906101000a900460ff16908060040160019054906101000a900473ffffffffffffffffffffffffffffffffffffffff16908060050160009054906101000a900473ffffffffffffffffffffffffffffffffffffffff16908060060154908060070160009054906101000a900460ff16905089565b60008054906101000a900473ffffffffffffffffffffffffffffffffffffffff1673ffffffffffffffffffffffffffffffffffffffff163373ffffffffffffffffffffffffffffffffffffffff1614610888576040517f08c379a000000000000000000000000000000000000000000000000000000000815260040161087f90612db4565b60405180910390fd5b6000600460008481526020019081526020016000209050600360048111156108b3576108b2612269565b5b8160040160009054906101000a900460ff1660048111156108d7576108d6612269565b5b14610917576040517f08c379a000000000000000000000000000000000000000000000000000000000815260040161090e90612e20565b60405180910390fd5b60048160040160006101000a81548160ff0219169083600481111561093f5761093e612269565b5b02179055508115610b8257601e600360008360050160009054906101000a900473ffffffffffffffffffffffffffffffffffffffff1673ffffffffffffffffffffffffffffffffffffffff1673ffffffffffffffffffffffffffffffffffffffff1681526020019081526020016000206002015410610a3b57601e600360008360050160009054906101000a900473ffffffffffffffffffffffffffffffffffffffff1673ffffffffffffffffffffffffffffffffffffffff1673ffffffffffffffffffffffffffffffffffffffff1681526020019081526020016000206002016000828254610a2f9190612e40565b92505081905550610aa8565b6000600360008360050160009054906101000a900473ffffffffffffffffffffffffffffffffffffffff1673ffffffffffffffffffffffffffffffffffffffff1673ffffffffffffffffffffffffffffffffffffffff168152602001908152602001600020600201819055505b60008160040160019054906101000a900473ffffffffffffffffffffffffffffffffffffffff1673ffffffffffffffffffffffffffffffffffffffff168260060154604051610af690612ea5565b60006040518083038185875af1925050503d8060008114610b33576040519150601f19603f3d011682016040523d82523d6000602084013e610b38565b606091505b5050905080610b7c576040517f08c379a0000000000000000000000000000000000000000000000000000000008152600401610b7390612f06565b60405180910390fd5b50610b8c565b610b8b81611e9c565b5b827f064aa28429ea2a2bff0bb19a78fbb12ec09b425cb1e9e5d8748f5cf0bbbd02446004604051610bbd9190612ced565b60405180910390a2505050565b6004600082815260200190815260200160002060050160009054906101000a900473ffffffffffffffffffffffffffffffffffffffff1673ffffffffffffffffffffffffffffffffffffffff163373ffffffffffffffffffffffffffffffffffffffff1614610c6e576040517f08c379a0000000000000000000000000000000000000000000000000000000008152600401610c6590612f72565b60405180910390fd5b60016004600083815260200190815260200160002060070160006101000a81548160ff02191690831515021790555050565b60025481565b6060600060015467ffffffffffffffff811115610cc657610cc561290f565b5b604051908082528060200260200182016040528015610cff57816020015b610cec6120c7565b815260200190600190039081610ce45790505b5090506000600190505b6001548111610fb257600460008281526020019081526020016000206040518061012001604052908160008201548152602001600182018054610d4b90612d37565b80601f0160208091040260200160405190810160405280929190818152602001828054610d7790612d37565b8015610dc45780601f10610d9957610100808354040283529160200191610dc4565b820191906000526020600020905b815481529060010190602001808311610da757829003601f168201915b5050505050815260200160028201548152602001600382018054610de790612d37565b80601f0160208091040260200160405190810160405280929190818152602001828054610e1390612d37565b8015610e605780601f10610e3557610100808354040283529160200191610e60565b820191906000526020600020905b815481529060010190602001808311610e4357829003601f168201915b505050505081526020016004820160009054906101000a900460ff166004811115610e8e57610e8d612269565b5b6004811115610ea057610e9f612269565b5b81526020016004820160019054906101000a900473ffffffffffffffffffffffffffffffffffffffff1673ffffffffffffffffffffffffffffffffffffffff1673ffffffffffffffffffffffffffffffffffffffff1681526020016005820160009054906101000a900473ffffffffffffffffffffffffffffffffffffffff1673ffffffffffffffffffffffffffffffffffffffff1673ffffffffffffffffffffffffffffffffffffffff168152602001600682015481526020016007820160009054906101000a900460ff16151515158152505082600183610f839190612e40565b81518110610f9457610f93612f92565b5b60200260200101819052508080610faa90612fc1565b915050610d09565b508091505090565b6004600082815260200190815260200160002060040160019054906101000a900473ffffffffffffffffffffffffffffffffffffffff1673ffffffffffffffffffffffffffffffffffffffff163373ffffffffffffffffffffffffffffffffffffffff161461105e576040517f08c379a000000000000000000000000000000000000000000000000000000000815260040161105590613055565b60405180910390fd5b60036004600083815260200190815260200160002060040160006101000a81548160ff0219169083600481111561109857611097612269565b5b0217905550807f064aa28429ea2a2bff0bb19a78fbb12ec09b425cb1e9e5d8748f5cf0bbbd024460036040516110ce9190612ced565b60405180910390a250565b600560205281600052604060002081815481106110f557600080fd5b9060005260206000209060020201600091509150508060000160009054906101000a900473ffffffffffffffffffffffffffffffffffffffff16908060010154905082565b60006004600084815260200190815260200160002090506000600481111561116557611164612269565b5b8160040160009054906101000a900460ff16600481111561118957611188612269565b5b146111c9576040517f08c379a00000000000000000000000000000000000000000000000000000000081526004016111c0906130e7565b60405180910390fd5b60006005600085815260200190815260200160002083815481106111f0576111ef612f92565b5b90600052602060002090600202016040518060400160405290816000820160009054906101000a900473ffffffffffffffffffffffffffffffffffffffff1673ffffffffffffffffffffffffffffffffffffffff1673ffffffffffffffffffffffffffffffffffffffff16815260200160018201548152505090508160040160019054906101000a900473ffffffffffffffffffffffffffffffffffffffff1673ffffffffffffffffffffffffffffffffffffffff163373ffffffffffffffffffffffffffffffffffffffff16146112fd576040517f08c379a00000000000000000000000000000000000000000000000000000000081526004016112f490613179565b60405180910390fd5b8060200151341015611344576040517f08c379a000000000000000000000000000000000000000000000000000000000815260040161133b906131e5565b60405180910390fd5b80600001518260050160006101000a81548173ffffffffffffffffffffffffffffffffffffffff021916908373ffffffffffffffffffffffffffffffffffffffff1602179055508060200151826006018190555060018260040160006101000a81548160ff021916908360048111156113c0576113bf612269565b5b021790555060008160200151346113d79190612e40565b905060008111156114905760003373ffffffffffffffffffffffffffffffffffffffff168260405161140890612ea5565b60006040518083038185875af1925050503d8060008114611445576040519150601f19603f3d011682016040523d82523d6000602084013e61144a565b606091505b505090508061148e576040517f08c379a000000000000000000000000000000000000000000000000000000000815260040161148590612f06565b60405180910390fd5b505b847f064aa28429ea2a2bff0bb19a78fbb12ec09b425cb1e9e5d8748f5cf0bbbd024460016040516114c19190612ced565b60405180910390a25050505050565b60008054906101000a900473ffffffffffffffffffffffffffffffffffffffff1681565b60015481565b600360205280600052604060002060009150905080600001805461151d90612d37565b80601f016020809104026020016040519081016040528092919081815260200182805461154990612d37565b80156115965780601f1061156b57610100808354040283529160200191611596565b820191906000526020600020905b81548152906001019060200180831161157957829003601f168201915b5050505050908060010160009054906101000a900460ff16908060020154908060030160009054906101000a900460ff16905084565b600260038111156115e0576115df612269565b5b600360003373ffffffffffffffffffffffffffffffffffffffff1673ffffffffffffffffffffffffffffffffffffffff16815260200190815260200160002060010160009054906101000a900460ff16600381111561164257611641612269565b5b14611682576040517f08c379a000000000000000000000000000000000000000000000000000000000815260040161167990613251565b60405180910390fd5b6028600360003373ffffffffffffffffffffffffffffffffffffffff1673ffffffffffffffffffffffffffffffffffffffff168152602001908152602001600020600201541015611708576040517f08c379a00000000000000000000000000000000000000000000000000000000081526004016116ff906132bd565b60405180910390fd5b6004600083815260200190815260200160002060020154811115611761576040517f08c379a000000000000000000000000000000000000000000000000000000000815260040161175890613329565b60405180910390fd5b6000600481111561177557611774612269565b5b6004600084815260200190815260200160002060040160009054906101000a900460ff1660048111156117ab576117aa612269565b5b146117eb576040517f08c379a00000000000000000000000000000000000000000000000000000000081526004016117e290613395565b60405180910390fd5b6005600083815260200190815260200160002060405180604001604052803373ffffffffffffffffffffffffffffffffffffffff16815260200183815250908060018154018082558091505060019003906000526020600020906002020160009091909190915060008201518160000160006101000a81548173ffffffffffffffffffffffffffffffffffffffff021916908373ffffffffffffffffffffffffffffffffffffffff160217905550602082015181600101555050817f558a0d5d5468d74b0db24c74eb348b42271c2ebb4c9e953ced38aaed95fa436133836040516118d79291906126d4565b60405180910390a25050565b606060006004600084815260200190815260200160002090508060040160019054906101000a900473ffffffffffffffffffffffffffffffffffffffff1673ffffffffffffffffffffffffffffffffffffffff163373ffffffffffffffffffffffffffffffffffffffff1614806119a5575060008054906101000a900473ffffffffffffffffffffffffffffffffffffffff1673ffffffffffffffffffffffffffffffffffffffff163373ffffffffffffffffffffffffffffffffffffffff16145b6119e4576040517f08c379a00000000000000000000000000000000000000000000000000000000081526004016119db90613427565b60405180910390fd5b60056000848152602001908152602001600020805480602002602001604051908101604052809291908181526020016000905b82821015611aa957838290600052602060002090600202016040518060400160405290816000820160009054906101000a900473ffffffffffffffffffffffffffffffffffffffff1673ffffffffffffffffffffffffffffffffffffffff1673ffffffffffffffffffffffffffffffffffffffff16815260200160018201548152505081526020019060010190611a17565b50505050915050919050565b60016003811115611ac957611ac8612269565b5b600360003373ffffffffffffffffffffffffffffffffffffffff1673ffffffffffffffffffffffffffffffffffffffff16815260200190815260200160002060010160009054906101000a900460ff166003811115611b2b57611b2a612269565b5b14611b6b576040517f08c379a0000000000000000000000000000000000000000000000000000000008152600401611b62906134b9565b60405180910390fd5b60016000815480929190611b7e90612fc1565b919050555060006004600060015481526020019081526020016000209050600154816000018190555083816001019081611bb89190613685565b5082816002018190555081816003019081611bd39190613685565b5060008160040160006101000a81548160ff02191690836004811115611bfc57611bfb612269565b5b0217905550338160040160016101000a81548173ffffffffffffffffffffffffffffffffffffffff021916908373ffffffffffffffffffffffffffffffffffffffff1602179055506001547f064aa28429ea2a2bff0bb19a78fbb12ec09b425cb1e9e5d8748f5cf0bbbd02446000604051611c779190612ced565b60405180910390a250505050565b600360003373ffffffffffffffffffffffffffffffffffffffff1673ffffffffffffffffffffffffffffffffffffffff16815260200190815260200160002060030160009054906101000a900460ff1615611d15576040517f08c379a0000000000000000000000000000000000000000000000000000000008152600401611d0c906137c9565b60405180910390fd5b60006003811115611d2957611d28612269565b5b816003811115611d3c57611d3b612269565b5b03611d7c576040517f08c379a0000000000000000000000000000000000000000000000000000000008152600401611d7390613835565b60405180910390fd5b600060026003811115611d9257611d91612269565b5b826003811115611da557611da4612269565b5b03611daf57606490505b6040518060800160405280848152602001836003811115611dd357611dd2612269565b5b815260200182815260200160011515815250600360003373ffffffffffffffffffffffffffffffffffffffff1673ffffffffffffffffffffffffffffffffffffffff1681526020019081526020016000206000820151816000019081611e399190613685565b5060208201518160010160006101000a81548160ff02191690836003811115611e6557611e64612269565b5b02179055506040820151816002015560608201518160030160006101000a81548160ff021916908315150217905550905050505050565b6000671bc16d674ec8000082600601541015611ed657606460028360060154611ec59190613855565b611ecf91906138c6565b9050611ef6565b606460018360060154611ee99190613855565b611ef391906138c6565b90505b8060026000828254611f089190612cb9565b925050819055506000818360060154611f219190612e40565b905060008060009054906101000a900473ffffffffffffffffffffffffffffffffffffffff1673ffffffffffffffffffffffffffffffffffffffff1683604051611f6a90612ea5565b60006040518083038185875af1925050503d8060008114611fa7576040519150601f19603f3d011682016040523d82523d6000602084013e611fac565b606091505b5050905080611ff0576040517f08c379a0000000000000000000000000000000000000000000000000000000008152600401611fe790613943565b60405180910390fd5b60008460050160009054906101000a900473ffffffffffffffffffffffffffffffffffffffff1673ffffffffffffffffffffffffffffffffffffffff168360405161203a90612ea5565b60006040518083038185875af1925050503d8060008114612077576040519150601f19603f3d011682016040523d82523d6000602084013e61207c565b606091505b50509050806120c0576040517f08c379a00000000000000000000000000000000000000000000000000000000081526004016120b7906139af565b60405180910390fd5b5050505050565b604051806101200160405280600081526020016060815260200160008152602001606081526020016000600481111561210357612102612269565b5b8152602001600073ffffffffffffffffffffffffffffffffffffffff168152602001600073ffffffffffffffffffffffffffffffffffffffff168152602001600081526020016000151581525090565b6000604051905090565b600080fd5b600080fd5b6000819050919050565b61217a81612167565b811461218557600080fd5b50565b60008135905061219781612171565b92915050565b6000602082840312156121b3576121b261215d565b5b60006121c184828501612188565b91505092915050565b6121d381612167565b82525050565b600081519050919050565b600082825260208201905092915050565b60005b838110156122135780820151818401526020810190506121f8565b60008484015250505050565b6000601f19601f8301169050919050565b600061223b826121d9565b61224581856121e4565b93506122558185602086016121f5565b61225e8161221f565b840191505092915050565b7f4e487b7100000000000000000000000000000000000000000000000000000000600052602160045260246000fd5b600581106122a9576122a8612269565b5b50565b60008190506122ba82612298565b919050565b60006122ca826122ac565b9050919050565b6122da816122bf565b82525050565b600073ffffffffffffffffffffffffffffffffffffffff82169050919050565b600061230b826122e0565b9050919050565b61231b81612300565b82525050565b60008115159050919050565b61233681612321565b82525050565b600061012082019050612352600083018c6121ca565b8181036020830152612364818b612230565b9050612373604083018a6121ca565b81810360608301526123858189612230565b905061239460808301886122d1565b6123a160a0830187612312565b6123ae60c0830186612312565b6123bb60e08301856121ca565b6123c961010083018461232d565b9a9950505050505050505050565b6123e081612321565b81146123eb57600080fd5b50565b6000813590506123fd816123d7565b92915050565b6000806040838503121561241a5761241961215d565b5b600061242885828601612188565b9250506020612439858286016123ee565b9150509250929050565b600060208201905061245860008301846121ca565b92915050565b600081519050919050565b600082825260208201905092915050565b6000819050602082019050919050565b61249381612167565b82525050565b600082825260208201905092915050565b60006124b5826121d9565b6124bf8185612499565b93506124cf8185602086016121f5565b6124d88161221f565b840191505092915050565b6124ec816122bf565b82525050565b6124fb81612300565b82525050565b61250a81612321565b82525050565b600061012083016000830151612529600086018261248a565b506020830151848203602086015261254182826124aa565b9150506040830151612556604086018261248a565b506060830151848203606086015261256e82826124aa565b915050608083015161258360808601826124e3565b5060a083015161259660a08601826124f2565b5060c08301516125a960c08601826124f2565b5060e08301516125bc60e086018261248a565b506101008301516125d1610100860182612501565b508091505092915050565b60006125e88383612510565b905092915050565b6000602082019050919050565b60006126088261245e565b6126128185612469565b9350836020820285016126248561247a565b8060005b85811015612660578484038952815161264185826125dc565b945061264c836125f0565b925060208a01995050600181019050612628565b50829750879550505050505092915050565b6000602082019050818103600083015261268c81846125fd565b905092915050565b600080604083850312156126ab576126aa61215d565b5b60006126b985828601612188565b92505060206126ca85828601612188565b9150509250929050565b60006040820190506126e96000830185612312565b6126f660208301846121ca565b9392505050565b60006020820190506127126000830184612312565b92915050565b61272181612300565b811461272c57600080fd5b50565b60008135905061273e81612718565b92915050565b60006020828403121561275a5761275961215d565b5b60006127688482850161272f565b91505092915050565b6004811061278257612781612269565b5b50565b600081905061279382612771565b919050565b60006127a382612785565b9050919050565b6127b381612798565b82525050565b600060808201905081810360008301526127d38187612230565b90506127e260208301866127aa565b6127ef60408301856121ca565b6127fc606083018461232d565b95945050505050565b600081519050919050565b600082825260208201905092915050565b6000819050602082019050919050565b60408201600082015161284760008501826124f2565b50602082015161285a602085018261248a565b50505050565b600061286c8383612831565b60408301905092915050565b6000602082019050919050565b600061289082612805565b61289a8185612810565b93506128a583612821565b8060005b838110156128d65781516128bd8882612860565b97506128c883612878565b9250506001810190506128a9565b5085935050505092915050565b600060208201905081810360008301526128fd8184612885565b905092915050565b600080fd5b600080fd5b7f4e487b7100000000000000000000000000000000000000000000000000000000600052604160045260246000fd5b6129478261221f565b810181811067ffffffffffffffff821117156129665761296561290f565b5b80604052505050565b6000612979612153565b9050612985828261293e565b919050565b600067ffffffffffffffff8211156129a5576129a461290f565b5b6129ae8261221f565b9050602081019050919050565b82818337600083830152505050565b60006129dd6129d88461298a565b61296f565b9050828152602081018484840111156129f9576129f861290a565b5b612a048482856129bb565b509392505050565b600082601f830112612a2157612a20612905565b5b8135612a318482602086016129ca565b91505092915050565b600080600060608486031215612a5357612a5261215d565b5b600084013567ffffffffffffffff811115612a7157612a70612162565b5b612a7d86828701612a0c565b9350506020612a8e86828701612188565b925050604084013567ffffffffffffffff811115612aaf57612aae612162565b5b612abb86828701612a0c565b9150509250925092565b60048110612ad257600080fd5b50565b600081359050612ae481612ac5565b92915050565b60008060408385031215612b0157612b0061215d565b5b600083013567ffffffffffffffff811115612b1f57612b1e612162565b5b612b2b85828601612a0c565b9250506020612b3c85828601612ad5565b9150509250929050565b7f446f6e6f72206d75737420617070726f76652064656c69766572790000000000600082015250565b6000612b7c601b836121e4565b9150612b8782612b46565b602082019050919050565b60006020820190508181036000830152612bab81612b6f565b9050919050565b7f4167656e6379206861736e2774206d61726b65642064656c6976657279000000600082015250565b6000612be8601d836121e4565b9150612bf382612bb2565b602082019050919050565b60006020820190508181036000830152612c1781612bdb565b9050919050565b7f4d697373696f6e206e6f7420696e207472616e73697400000000000000000000600082015250565b6000612c546016836121e4565b9150612c5f82612c1e565b602082019050919050565b60006020820190508181036000830152612c8381612c47565b9050919050565b7f4e487b7100000000000000000000000000000000000000000000000000000000600052601160045260246000fd5b6000612cc482612167565b9150612ccf83612167565b9250828201905080821115612ce757612ce6612c8a565b5b92915050565b6000602082019050612d0260008301846122d1565b92915050565b7f4e487b7100000000000000000000000000000000000000000000000000000000600052602260045260246000fd5b60006002820490506001821680612d4f57607f821691505b602082108103612d6257612d61612d08565b5b50919050565b7f4f6e6c7920554e20417262697465722063616e207265736f6c76650000000000600082015250565b6000612d9e601b836121e4565b9150612da982612d68565b602082019050919050565b60006020820190508181036000830152612dcd81612d91565b9050919050565b7f4d697373696f6e206973206e6f74206469737075746564000000000000000000600082015250565b6000612e0a6017836121e4565b9150612e1582612dd4565b602082019050919050565b60006020820190508181036000830152612e3981612dfd565b9050919050565b6000612e4b82612167565b9150612e5683612167565b9250828203905081811115612e6e57612e6d612c8a565b5b92915050565b600081905092915050565b50565b6000612e8f600083612e74565b9150612e9a82612e7f565b600082019050919050565b6000612eb082612e82565b9150819050919050565b7f526566756e64206661696c656400000000000000000000000000000000000000600082015250565b6000612ef0600d836121e4565b9150612efb82612eba565b602082019050919050565b60006020820190508181036000830152612f1f81612ee3565b9050919050565b7f4e6f74207468652061737369676e6564206167656e6379000000000000000000600082015250565b6000612f5c6017836121e4565b9150612f6782612f26565b602082019050919050565b60006020820190508181036000830152612f8b81612f4f565b9050919050565b7f4e487b7100000000000000000000000000000000000000000000000000000000600052603260045260246000fd5b6000612fcc82612167565b91507fffffffffffffffffffffffffffffffffffffffffffffffffffffffffffffffff8203612ffe57612ffd612c8a565b5b600182019050919050565b7f4f6e6c7920446f6e6f722063616e206469737075746500000000000000000000600082015250565b600061303f6016836121e4565b915061304a82613009565b602082019050919050565b6000602082019050818103600083015261306e81613032565b9050919050565b7f4d697373696f6e20616c72656164792066756e646564206f7220636f6d706c6560008201527f7465640000000000000000000000000000000000000000000000000000000000602082015250565b60006130d16023836121e4565b91506130dc82613075565b604082019050919050565b60006020820190508181036000830152613100816130c4565b9050919050565b7f4f6e6c792074686520446f6e6f722063616e2073656c656374206120706c656460008201527f6765000000000000000000000000000000000000000000000000000000000000602082015250565b60006131636022836121e4565b915061316e82613107565b604082019050919050565b6000602082019050818103600083015261319281613156565b9050919050565b7f496e73756666696369656e742045746865722073656e74000000000000000000600082015250565b60006131cf6017836121e4565b91506131da82613199565b602082019050919050565b600060208201905081810360008301526131fe816131c2565b9050919050565b7f4f6e6c792052656c696566204167656e636965732063616e20706c6564676500600082015250565b600061323b601f836121e4565b915061324682613205565b602082019050919050565b6000602082019050818103600083015261326a8161322e565b9050919050565b7f52657075746174696f6e2053636f72652062656c6f7720343000000000000000600082015250565b60006132a76019836121e4565b91506132b282613271565b602082019050919050565b600060208201905081810360008301526132d68161329a565b9050919050565b7f4269642065786365656473204d61782042756467657400000000000000000000600082015250565b60006133136016836121e4565b915061331e826132dd565b602082019050919050565b6000602082019050818103600083015261334281613306565b9050919050565b7f4d697373696f6e206973206e6f7420616363657074696e672062696473000000600082015250565b600061337f601d836121e4565b915061338a82613349565b602082019050919050565b600060208201905081810360008301526133ae81613372565b9050919050565b7f4f6e6c792074686520446f6e6f72206f722041646d696e2063616e207669657760008201527f2074686573652062696473000000000000000000000000000000000000000000602082015250565b6000613411602b836121e4565b915061341c826133b5565b604082019050919050565b6000602082019050818103600083015261344081613404565b9050919050565b7f4f6e6c7920446f6e6f72206163636f756e74732063616e20706f7374206d697360008201527f73696f6e73000000000000000000000000000000000000000000000000000000602082015250565b60006134a36025836121e4565b91506134ae82613447565b604082019050919050565b600060208201905081810360008301526134d281613496565b9050919050565b60008190508160005260206000209050919050565b60006020601f8301049050919050565b600082821b905092915050565b60006008830261353b7fffffffffffffffffffffffffffffffffffffffffffffffffffffffffffffffff826134fe565b61354586836134fe565b95508019841693508086168417925050509392505050565b6000819050919050565b600061358261357d61357884612167565b61355d565b612167565b9050919050565b6000819050919050565b61359c83613567565b6135b06135a882613589565b84845461350b565b825550505050565b600090565b6135c56135b8565b6135d0818484613593565b505050565b5b818110156135f4576135e96000826135bd565b6001810190506135d6565b5050565b601f8211156136395761360a816134d9565b613613846134ee565b81016020851015613622578190505b61363661362e856134ee565b8301826135d5565b50505b505050565b600082821c905092915050565b600061365c6000198460080261363e565b1980831691505092915050565b6000613675838361364b565b9150826002028217905092915050565b61368e826121d9565b67ffffffffffffffff8111156136a7576136a661290f565b5b6136b18254612d37565b6136bc8282856135f8565b600060209050601f8311600181146136ef57600084156136dd578287015190505b6136e78582613669565b86555061374f565b601f1984166136fd866134d9565b60005b8281101561372557848901518255600182019150602085019450602081019050613700565b86831015613742578489015161373e601f89168261364b565b8355505b6001600288020188555050505b505050505050565b7f57616c6c657420616464726573732063616e6e6f74206265207265676973746560008201527f7265642074776963650000000000000000000000000000000000000000000000602082015250565b60006137b36029836121e4565b91506137be82613757565b604082019050919050565b600060208201905081810360008301526137e2816137a6565b9050919050565b7f4d7573742073656c65637420612076616c696420726f6c650000000000000000600082015250565b600061381f6018836121e4565b915061382a826137e9565b602082019050919050565b6000602082019050818103600083015261384e81613812565b9050919050565b600061386082612167565b915061386b83612167565b925082820261387981612167565b915082820484148315176138905761388f612c8a565b5b5092915050565b7f4e487b7100000000000000000000000000000000000000000000000000000000600052601260045260246000fd5b60006138d182612167565b91506138dc83612167565b9250826138ec576138eb613897565b5b828204905092915050565b7f466565207472616e73666572206661696c656400000000000000000000000000600082015250565b600061392d6013836121e4565b9150613938826138f7565b602082019050919050565b6000602082019050818103600083015261395c81613920565b9050919050565b7f4167656e6379207061796f7574206661696c6564000000000000000000000000600082015250565b60006139996014836121e4565b91506139a482613963565b602082019050919050565b600060208201905081810360008301526139c88161398c565b905091905056fea2646970667358221220ad80208a3634d29c422503b41e93a81848af205ccecd9f9d17d75bb80f20d4c564736f6c63430008150033",
  "immutableReferences": {},
  "source": "// SPDX-License-Identifier: MIT\npragma solidity ^0.8.0;\n\ncontract ConflictZoneAid {\n    enum Role { None, Donor, Relief_Agency, UN_Arbiter }\n    enum Status { Pending, In_Transit, Delivered, Disputed, Resolved }\n\n    struct User {\n        string name;\n        Role role;\n        uint256 reputationScore;\n        bool isRegistered;\n    }\n\n    struct Bid {\n        address agency;\n        uint256 amount;\n    }\n\n    struct Mission {\n        uint256 mission_id;      \n        string category;\n        uint256 max_budget;     \n        string region;         \n        Status current_status;   \n        address donor_wallet;    \n        address assigned_provider; \n        uint256 agreed_cost;\n        bool agency_marked_complete;\n    }\n\n    address public un_arbiter_admin;\n    uint256 public mission_count;\n    uint256 public totalFeesCollected;\n\n    mapping(address => User) public users;\n    mapping(uint256 => Mission) public missions;\n    mapping(uint256 => Bid[]) public missionBids;\n\n    event MissionUpdated(uint256 indexed missionId, Status status);\n    event NewBid(uint256 indexed missionId, address agency, uint256 amount);\n\n    constructor() {\n        un_arbiter_admin = msg.sender;\n        users[msg.sender] = User(\"UN Admin\", Role.UN_Arbiter, 1000, true);\n    }\n\n    function registerAccount(string memory _name, Role _role) external {\n        require(!users[msg.sender].isRegistered, \"Wallet address cannot be registered twice\");\n        require(_role != Role.None, \"Must select a valid role\");\n\n        uint256 initialRep = 0;\n        if (_role == Role.Relief_Agency) {\n            initialRep = 100;\n        }\n\n        users[msg.sender] = User({\n            name: _name,\n            role: _role,\n            reputationScore: initialRep,\n            isRegistered: true\n        });\n    }\n\n    function getAllMissions() public view returns (Mission[] memory) {\n        Mission[] memory allMissions = new Mission[](mission_count);\n        for (uint256 i = 1; i <= mission_count; i++) {\n            allMissions[i - 1] = missions[i];\n        }\n        return allMissions;\n    }\n\n    function postMission(string memory _cat, uint256 _budgetInWei, string memory _region) external {\n        require(users[msg.sender].role == Role.Donor, \"Only Donor accounts can post missions\");\n        mission_count++;\n        Mission storage m = missions[mission_count];\n        m.mission_id = mission_count;\n        m.category = _cat;\n        m.max_budget = _budgetInWei; \n        m.region = _region;\n        m.current_status = Status.Pending;\n        m.donor_wallet = msg.sender;\n        emit MissionUpdated(mission_count, Status.Pending);\n    }\n\n    function submitBid(uint256 _mId, uint256 _bidAmount) external {\n        require(users[msg.sender].role == Role.Relief_Agency, \"Only Relief Agencies can pledge\");\n        require(users[msg.sender].reputationScore >= 40, \"Reputation Score below 40\"); \n        require(_bidAmount <= missions[_mId].max_budget, \"Bid exceeds Max Budget\");\n        require(missions[_mId].current_status == Status.Pending, \"Mission is not accepting bids\");\n\n        missionBids[_mId].push(Bid(msg.sender, _bidAmount));\n\n        emit NewBid(_mId, msg.sender, _bidAmount);\n    }\n\n    function getMissionBids(uint256 _mId) public view returns (Bid[] memory) {\n        Mission storage m = missions[_mId];\n        require(\n            msg.sender == m.donor_wallet || msg.sender == un_arbiter_admin,\n            \"Only the Donor or Admin can view these bids\"\n        );\n\n        return missionBids[_mId];\n    }\n\n    function fundMission(uint256 _mId, uint256 _bidIndex) external payable {\n        Mission storage m = missions[_mId];\n        require(m.current_status == Status.Pending, \"Mission already funded or completed\");\n        \n        Bid memory selected = missionBids[_mId][_bidIndex];\n        require(msg.sender == m.donor_wallet, \"Only the Donor can select a pledge\"); \n        require(msg.value >= selected.amount, \"Insufficient Ether sent\"); \n\n        m.assigned_provider = selected.agency;\n        m.agreed_cost = selected.amount;\n        m.current_status = Status.In_Transit; \n\n        uint256 excess = msg.value - selected.amount;\n        if (excess > 0) {\n            (bool success, ) = payable(msg.sender).call{value: excess}(\"\");\n            require(success, \"Refund failed\");\n        }\n        emit MissionUpdated(_mId, Status.In_Transit);\n    }\n\n    function markMissionDelivered(uint256 _mId) external {\n        require(msg.sender == missions[_mId].assigned_provider, \"Not the assigned agency\");\n        missions[_mId].agency_marked_complete = true;\n    }\n\n    function approveAndPay(uint256 _mId) external {\n        Mission storage m = missions[_mId];\n        require(msg.sender == m.donor_wallet, \"Donor must approve delivery\"); \n        require(m.agency_marked_complete, \"Agency hasn't marked delivery\");\n        require(m.current_status == Status.In_Transit, \"Mission not in transit\");\n\n        m.current_status = Status.Delivered;\n        users[m.assigned_provider].reputationScore += 15; \n\n        _processPayment(m);\n        emit MissionUpdated(_mId, Status.Delivered);\n    }\n\n    function _processPayment(Mission storage m) internal {\n        uint256 fee;\n        if (m.agreed_cost < 2 ether) {\n            fee = (m.agreed_cost * 2) / 100;\n        } else {\n            fee = (m.agreed_cost * 1) / 100;\n        }\n        \n        totalFeesCollected += fee;\n        uint256 agencyPayout = m.agreed_cost - fee;\n\n        (bool feeSuccess, ) = payable(un_arbiter_admin).call{value: fee}(\"\"); \n        require(feeSuccess, \"Fee transfer failed\");\n\n        (bool paySuccess, ) = payable(m.assigned_provider).call{value: agencyPayout}(\"\"); \n        require(paySuccess, \"Agency payout failed\");\n    }\n\n    function initiateDispute(uint256 _mId) external {\n        require(msg.sender == missions[_mId].donor_wallet, \"Only Donor can dispute\");\n        missions[_mId].current_status = Status.Disputed;\n        emit MissionUpdated(_mId, Status.Disputed);\n    }\n\n    function resolveDispute(uint256 _mId, bool _agencyAtFault) external {\n        require(msg.sender == un_arbiter_admin, \"Only UN Arbiter can resolve\");\n        Mission storage m = missions[_mId];\n        require(m.current_status == Status.Disputed, \"Mission is not disputed\");\n\n        m.current_status = Status.Resolved;\n\n        if (_agencyAtFault) {\n            if (users[m.assigned_provider].reputationScore >= 30) {\n                users[m.assigned_provider].reputationScore -= 30;\n            } else {\n                users[m.assigned_provider].reputationScore = 0;\n            }\n\n            (bool success, ) = payable(m.donor_wallet).call{value: m.agreed_cost}(\"\");\n            require(success, \"Refund failed\");\n        } else {\n            _processPayment(m);\n        }\n        emit MissionUpdated(_mId, Status.Resolved);\n    }\n}\n",
  "sourcePath": "/home/sun/Desktop/Web_dev/6_blockchain/ether_dapp/contracts/ConflictZoneAid.sol",
  "compiler": {
    "name": "solc",
    "version": "0.8.21+commit.d9974bed.Emscripten.clang"
  },
  "schemaVersion": "3.4.16",
  "updatedAt": "2026-04-19T18:46:35.161Z",
  "networkType": "ethereum",
  "devdoc": {
    "kind": "dev",
    "methods": {},
    "version": 1
  },
  "userdoc": {
    "kind": "user",
    "methods": {},
    "version": 1
  }
}